:0A061400C0F9A4B0999282F880901A
:100523001205FB1205BAE4FF1205D51205998E0FC9
:100533008F10AC0FAD10E41202D57B177AB7795147
:10054300783E12023312030E8E118F12D3E51295E9
:100553000AE51195094007E50870031205EDC3E5A7
:1005630012950CE511950B50C2E50870BE1205ED0E
:0205730080B94D
:1005D500E4F51453070775BC1000EF42BC0043BC9B
:0805E500807F017E0002057910
:10059900E4FF43BC0800000000EF7007E5BC5410FD
:1005A900FF80F653BCE7AFBDEF75F004A4FFAEF0D2
:0105B900221F
:0D05FB0075A0F075960FE4F595759101223D
:040575007F057E0080
:10057900E4FDFCC3ED9FEC9E5015E4FBFA0BBB00B8
:0F058900010AEB64644A70F50DBD00010C80E4BB
:010598002240
:0E05ED00C2A57F647E00120579D2A5020579B1
:1004280020B33312057520B32D30B3FD050EE50E4C
:100438007002050D6401450D7003750801E50E6431
:1004480002450D7003750802E50E6403450D70063C
:10045800F50DF50EF508E50E6401450D705A7508A1
:100468000120B4297F05FE12057920B42030B4FD9F
:100478007464250CF50CE4350BF50BC3E50C948876
:10048800E50B648094934005E4F50BF50C20B52842
:1004980012057520B52230B5FD749C250CF50C7439
:1004A800FF350BF50BD3E50C9400E50B64809480C5
:1004B8005006750B13750C88E50E6402450D705ACD
:1004C80075080220B4297F05FE12057920B4203072
:1004D800B4FD7464250AF50AE43509F509C3E50A8B
:1004E8009488E509648094934005E4F509F50A20A9
:1004F800B52812057520B52230B5FD749C250AF57E
:100508000A74FF3509F509D3E50A9400E509648002
:0B05180094805006750913750A8822B4
:1005BA00758902E4F58CF58AD2A9D28CD2AFF508F6
:0B05CA00750913750A88F50BF50C226B
:03000B0002000EE2
:10000E00C0E0C0F0C083C082C0D075D000C000C0B8
:0B001E0002C003C004C005C006C007FC
:10002900120428E5086003020101E5131460311484
:10003900605E1470030200D6240360030200F7AE69
:1000490011AF127C037DE812038F74142FF58274AB
:10005900063EF583E493F580C287D2A0C2A1802A27
:10006900AE11AF127C037DE812038F7E007F64CF4F
:10007900CDCFCECCCE12038F74142FF58274063EE9
:10008900F583E493F580C2A0D2A1C2A2C2A3805E87
:10009900AE11AF127C037DE812038F7E007F64CF1F
:1000A900CDCFCECCCE12038F7E007F0ACFCDCFCE5F
:1000B900CCCE12038F74142FF58274063EF583E4B7
:1000C90093F580C2A0C2A1D2A2C2A38021AE11AF72
:1000D900127C007D0A12038F74142DF58274063C7C
:1000E900F583E493F580C2A0C2A1C2A2D2A30513ED
:1000F900E513B40403751300E50864016003020104
:100109008CE51314602B1460581460622403706921
:10011900AE0BAF0C7C037DE81203E474142FF58257
:1001290074063EF583E493F580C287D2A0C2A1800C
:100139002AAE0BAF0C7C037DE81203E47E007F64DA
:10014900CFCDCFCECCCE1203E474142FF582740632
:100159003EF583E493F580C2A0D2A1C2A2C2A380D6
:10016900187580FFC2A0C2A1D2A2C2A3800B75805C
:10017900C7C2A0C2A1C2A2D2A30513E513B4040346
:10018900751300E50864026003020217E5131460A1
:100199002B14605814606224037069AE09AF0A7C9D
:1001A900037DE81203E474142FF58274063EF58387
:1001B900E493F580C287D2A0C2A1802AAE09AF0A12
:1001C9007C037DE81203E47E007F64CFCDCFCECCE3
:1001D900CE1203E474142FF58274063EF583E4937A
:1001E900F580C2A0D2A1C2A2C2A380187580FFC2A5
:1001F900A0C2A1D2A2C2A3800B758089C2A0C2A14C
:0E020900C2A2D2A30513E513B40403751300BB
:10021700D007D006D005D004D003D002D000D0D06C
:09022700D082D083D0F0D0E03287
:10023000020384EC5D046005E85904700302037A4C
:10024000120345580460F6EC4860F2EC7004FDFEC1
:10025000FF22C860DB2481C85009C39860025006A1
:100260000203819850CAF582E9294B4A7005AB8296
:1002700002037075F0007C1A7880C3EF9BEE9AED54
:1002800099400DC3EF9BFFEE9AFEED99FDE842F019
:10029000DC23ACF0D0E0FFD0E0FED0E0FDAB82206C
:1002A000E7101BEB60BAEC2CFCEF33FFEE33FEEDF6
:1002B00033FD02035CE803F830E705C0F075F00099
:1002C000EF2FFFEE33FEED33FD40B830E7C280AADA
:1002D00075F020800E75F010800575F0087D007EA9
:1002E000007F003392D530D50312041AEC3340104E
:1002F000EF33FFEE33FEED33FDEC33FCD5F0ED22B2
:0E030000E5F0247EA2D513CC92E7CDCEFF22ED
:10030E00EDD2E7CD33EC3392D524814006E4FFFEE7
:10031E00FDFC22FCE4CFCECDCC24E0501174FF8046
:10032E00EDC3CC13CCCD13CDCE13CECF13CF0470E3
:07033E00F030D5DE02041AC5
:10034500E9D2E7C933E833F892D5EDD2E7CD33ECFE
:0703550033FC5002B2D52277
:10035C00EC30E7100FBF000C0EBE00080DBD000402
:10036C000BEB6014A2D5EB13FCED92E7FD2274FFAE
:10037C00FCFDFEFF22E480F8A2D574FF13FC7D8007
:03038C00E480EF1B
:03000000020608ED
:0C060800787FE4F6D8FD7581140205230C
:10038F00BC000BBE0029EF8DF084FFADF022E4CC52
:10039F00F875F008EF2FFFEE33FEEC33FCEE9DEC1B
:1003AF00984005FCEE9DFE0FD5F0E9E4CEFD22ED61
:1003BF00F8F5F0EE8420D21CFEADF075F008EF2FAB
:1003CF00FFED33FD4007985006D5F0F222C398FD9C
:0503DF000FD5F0EA2239
:1003E400C2D5EC30E709B2D5E4C39DFDE49CFCEE34
:1003F40030E715B2D5E4C39FFFE49EFE12038FC31A
:10040400E49DFDE49CFC800312038F30D507C3E414
:060414009FFFE49EFE22A2
:0E041A00C3E49FFFE49EFEE49DFDE49CFC22F3
:00000001FF
